:100000000C9403010C9434000C9434000C943400D0
:100010000C9434000C9434000C9434000C94340090
:100020000C9434000C9434000C9434000C94340080
:100030000C9434000C9434000C9434000C94340070
:100040000C9434000C9434000C9434000C94340060
:100050000C9434000C9434000C9434000C94340050
:100060000C9434000C9434000C9400000E9448005E
:10007000CFEFC5B964EF71E080E090E00E94D3005B
:1000800015B864EF71E080E090E00E94D300F1CFFA
:100090008FEF84B915B887B918B88EEF8AB91BB835
:1000A0000895FC0181E090E09C0102C0220F331F03
:1000B0006A95E2F7B9018081411519F0822B80839E
:1000C000089560956823608308950C945100FC01A5
:1000D000808190E002C0959587956A95E2F78170DE
:1000E000089585B9089595B121E030E001C0220F4F
:1000F0008A95EAF7922B95B9089595B121E030E001
:1001000001C0220F8A95EAF72095292325B9089581
:1001100095B121E030E001C0220F8A95EAF79227DD
:1001200095B9089583B108958BB908959BB121E0E5
:1001300030E001C0220F8A95EAF7922B9BB908950F
:100140009BB121E030E001C0220F8A95EAF72095AB
:1001500029232BB9089589B10895462F572FBC0143
:10016000411551056105710509F4089500004150DC
:10017000510961097109F4CFDC01CB0124E0880F3A
:10018000991FAA1FBB1F2A95D1F732E0B695A795F4
:10019000979587953A95D1F70197A109B10908F488
:1001A00008950000F9CFCF92DF92EF92FF926B019A
:1001B0007C01C114D104E104F10429F4FF90EF9013
:1001C000DF90CF90089568EE73E080E090E00E94A9
:1001D000BC0081E0C81AD108E108F108EACFCF934A
:1001E000C82FC11102C0CF91089568EE73E080E07E
:1001F00090E00E94D300C150F4CF0F9302E00A9523
:10020000F1F70F91089511241FBECFEFD8E0DEBFA4
:0E021000CDBF0E9436000C940D01F894FFCF74
:00000001FF
