:100000000C9434000C94B2010C94C1010C94510076
:100010000C9451000C9451000C9451000C9451001C
:100020000C9451000C9451000C9451000C9451000C
:100030000C9451000C9451000C9451000C945100FC
:100040000C94D0010C9451000C9451000C9451006C
:100050000C9451000C9451000C9451000C945100DC
:100060000C9451000C94510011241FBECFEFD8E026
:10007000DEBFCDBF14E0A0E0B1E0E0EAF6E002C0F0
:1000800005900D92A430B107D9F724E0A4E0B4E0C4
:1000900001C01D92AC30B207E1F70E942C030C9412
:1000A0004E030C9400009091C00095FFFCCF80930C
:1000B000C6000895CF93DF93EC018991811103C0AD
:1000C000DF91CF9108950E945300F7CF1F93CF93F4
:1000D000DF93CDB7DEB761970FB6F894DEBF0FBEE2
:1000E000CDBF182F81E1E1E0F1E0DE011196019032
:1000F0000D928A95E1F7812F82958F70FE013196DE
:10010000E80FF11D80810E9453001F70FE0131969F
:10011000E10FF11D808161960FB6F894DEBF0FBE2E
:10012000CDBFDF91CF911F910C945300CF93C82F77
:10013000892F0E9466008C2FCF910C9466008091CD
:100140000B0481110EC01092C50087E68093C40095
:1001500088E18093C10086E08093C20081E08093B3
:100160000B0410920A0410920904109208041092D1
:10017000070486E891E00E945A0082E191E00E9423
:100180005A0085E391E00E945A0082E191E00C94CC
:100190005A00CF93DF93D82FC92F84E591E00E94B6
:1001A0005A008D2F9C2F0E945A008EE591E00E94EC
:1001B0005A0081E080930001DF91CF910895CF93A1
:1001C000DF93D62FC72F811110C01092000184E653
:1001D00091E00E945A008D2F9C2F0E945A0086E8C1
:1001E00091E0DF91CF910C945A00DF91CF91089567
:1001F00080910001811571F08BE691E00E945A0018
:100200008091090490910A04019690930A048093C6
:100210000904089582E791E00E945A008091070442
:100220009091080401969093080480930704089520
:10023000CF93DF93C0910904D0910A048091070401
:1002400090910804C80FD91F86E891E00E945A00D7
:1002500082E191E00E945A0089E791E00E945A00F1
:1002600082E191E00E945A0089E891E00E945A00E0
:100270008091090490910A040E94960086E891E01A
:100280000E945A0084E691E00E945A00809107047F
:10029000909108040E94960086E891E00E945A001E
:1002A00080E991E00E945A00CE010E94960086E803
:1002B00091E00E945A008091070490910804892BD4
:1002C00051F488E991E00E945A0082E191E0DF91C7
:1002D000CF910C945A0083EB91E0F5CF8FEF84B966
:1002E0008FE387B98EEF8AB915B818B81BB808958F
:1002F000813031F0823039F0811106C065B908953E
:100300006F7368B908956BB90895813031F0823008
:1003100039F0811107C083B1089586B18F730895B4
:1003200089B1089580E00895877085BD81E085BB1F
:10033000089586B5089586BD089585B381700895A2
:1003400081E085BB08959C0180E090E082179307CF
:1003500009F408954BE750E0000041505040E1F7A8
:100360000196F4CF1F920F920FB60F9211248F9324
:1003700081E0809306048F910F900FBE0F901F9025
:1003800018951F920F920FB60F9211248F9381E050
:10039000809305048F910F900FBE0F901F901895BA
:1003A0001F920F920FB60F9211248F938091040425
:1003B0008F5F809304048F910F900FBE0F901F905A
:1003C00018958FEC91E00E94C9000E946E0185E5AE
:1003D00085B981E090E00E94A30193B181E0953559
:1003E00009F080E06FED71E00E94DF008AEA85B9D4
:1003F00081E090E00E94A30193B181E09A3A09F074
:1004000080E065EF71E00E94DF008FEF85B981E049
:1004100090E00E94A30193B181E09F3F09F080E04A
:100420006BE072E00E94DF0015B881E090E00E946E
:10043000A30193B181E0911180E061E272E00E943A
:10044000DF000C94F80087E392E00E94C9000E944C
:100450006E0185E188B981E090E00E94A30196B128
:100460009F7381E0953109F080E067E472E00E94BB
:10047000DF008AE288B981E090E00E94A30196B192
:100480009F7381E09A3209F080E06DE572E00E948E
:10049000DF000C94F80083E792E00E94C9000E94FC
:1004A0006E018CEF8BB981E090E00E94A30199B1BD
:1004B0009C7F81E09C3F09F080E063E872E00E944D
:1004C000DF000C94F800CF9389E992E00E94C90004
:1004D00083E085BD81E085BB81E090E00E94A301BF
:1004E00016BC8AE090E00E94A301C6B581E0C1116C
:1004F00001C080E060EB72E00E94DF008AE090E0E3
:100500000E94A30196B581E0C91708F080E068EC6D
:1005100072E00E94DF00CF910C94F8008CEE92E024
:100520000E94C9001092040481E085BB85BD85BB93
:1005300080EF86BD85E090E00E94A30185B36CEF5B
:1005400072E081700E94DF000C94F80088E193E073
:100550000E94C90080910B0481110EC01092C50049
:1005600087E68093C40088E18093C10086E0809391
:10057000C20081E080930B0486E293E00E945A005F
:100580008AE090E00E94A3010C94F80080E393E0DD
:100590000E94C9000C94F8008DE393E00E94C9000A
:1005A0000C94F8008DE493E00E94C9000C94F800CC
:1005B0008DE593E00E94C9000C94F8008CE693E06E
:1005C0000E94C9000C94F8008CE793E00E94C900D7
:1005D00080E58CBD1DBC82E48EBD81E090E00E9470
:1005E000A3010C94F80084E993E00E94C9001092E2
:1005F000060482E08093690081E08DBB78948DB31E
:100600006CEA73E081700E94DF00F8940C94F800AB
:100610008DEB93E00E94C90082E48093000281E0A8
:1006200090E00E94A3019091000281E0923409F0D1
:1006300080E06FEC73E00E94DF0085EA80930002A7
:100640009091000281E0953A09F080E068EE73E055
:100650000E94DF000C94F8000E949F000E94E101BC
:100660000E9423020E944B020E9463020E948E029B
:100670000E94A6020E94C6020E94CC020E94D202E0
:100680000E94D8020E94DE020E94E4020E94F3024D
:100690000E9408030E9418010000FECFF894FFCFCB
:1006A00001303132333435363738394142434445ED
:1006B00046003D3D3D3D3D3D3D3D3D3D3D3D3D3D9E
:1006C0003D3D3D3D3D3D3D3D3D3D3D3D3D3D3D3D5A
:1006D0003D3D0D0A00537061726B4D4355204669D4
:1006E000726D7761726520546573742053756974F7
:1006F000650D0A000D0A5B544553545D2000202E01
:100700002E2E20004641494C3A2000504153530DB3
:100710000A004641494C0D0A005465737420526525
:1007200073756C74733A0D0A00504153533A2000AC
:10073000544F54414C3A20005354415455533A209D
:10074000414C4C205445535453205041535345443D
:100750000D0A005354415455533A20534F4D4520F0
:100760005445535453204641494C45440D0A0047D3
:1007700050494F20506F7274204220522F57005022
:1007800061747465726E2030783535206D69736DD3
:1007900061746368005061747465726E20307841D2
:1007A00041206D69736D6174636800506174746594
:1007B000726E2030784646206D69736D617463688F
:1007C000005061747465726E2030783030206D692D
:1007D000736D61746368004750494F20506F7274A5
:1007E000204320522F57005061747465726E203080
:1007F000783135206D69736D617463680050617480
:100800007465726E2030783241206D69736D617449
:100810006368004750494F20506F72742044205243
:100820002F57005061747465726E203078464320F3
:100830006D69736D617463680054696D6572302011
:100840004261736963204F7065726174696F6E00F5
:1008500054696D657220646964206E6F7420696EDE
:100860006372656D656E740054696D6572206469AC
:1008700064206E6F7420636F6E74696E7565206995
:100880006E6372656D656E74696E670054696D653F
:100890007230204F766572666C6F770054696D65B3
:1008A00072206F766572666C6F7720666C61672068
:1008B0006E6F74207365740055415254204C6F6FF5
:1008C000706261636B00554152545F54455354004C
:1008D000414C55204164646974696F6E00414C5508
:1008E000205375627472616374696F6E00414C5578
:1008F000204269747769736520414E4400414C552C
:100900002042697477697365204F5200414C55202D
:100910004269747769736520584F520053504920DB
:10092000426173696320436F6D6D756E69636174B5
:10093000696F6E0045787465726E616C20496E74E3
:1009400065727275707420494E543000494E5430AF
:10095000206E6F7420656E61626C6564004D656D1C
:100960006F727920526561642F5772697465004D0A
:10097000656D6F72792077726974652F7265616435
:10098000206661696C6564004D656D6F72792070D9
:1009900061747465726E2030784135206661696CCF
:0409A000656400008A
:00000001FF
